:100000000C9472020C949A020C949A020C949A0228
:100010000C949A020C949A020C949A020C949A02F0
:100020000C949A020C949A020C949A020C9441112A
:100030000C949A020C949A020C949A020C949A02D0
:100040000C94F7100C949A020C949A020C949A0255
:100050000C949A020C949A020C949A020C949A02B0
:100060000C949A020C949A020101FF030101F70318
:100070006C0068000500893008023802497868146D
:10008000000005032058F0030540C0A0C080030312
:1000900040E040050320D078030340E040030580A2
:1000A000C0A0C04008080E107E998181661808041F
:1000B0000C9ABE7F2050415553452000000000009F
:1000C000240027002A0000000000250028002B0043
:1000D0000500380168010000401E0000000000001B
:1000E000000000180000000800700078003C1C3878
:1000F00011F000F8387C7C783BF001FCF87CFCF8CF
:100100007FF007FCFCFDFCFC7FC00FF8FCF9FE7DD6
:10011000FF801FE1FEFBFE3DFE001F81FEFBDEFFB8
:10012000EE001F01FEFBDFFFDEE03E1EEF7BCFFF98
:100130008FE03FFFEFFFFFFFCF803FFFE7FFFFBFF5
:10014000E7B81F1FE3F7FFBFF7F0003EE1F787BEF8
:10015000F3F000FFE1CF831E63C003FFE01F000048
:1001600043801FFB0006000000001FF80000000095
:1001700000000FE0000003FCF0000F0000001FFF74
:10018000F80004000FFFFFDFF8000001FFFFFFDFB2
:1001900078000007FFFFFFFFF000001FFFFFFFFFD9
:1001A000FF00003FFFFFFFFFFFC000FFFC007FFFDD
:1001B000FFE000FF000007DFFFE001FE3FF003EB80
:1001C000FFE001FFFFFFF1FBFD60536E616B6520F7
:1001D0006279205269707065723132310017534470
:1001E00000161378001613140015102000152010A7
:1001F00000540A03E181867F3E186D830F0F0E01C4
:1002000083866033186DC3198F1803C38E6033184B
:100210006DE330CF1803C39E603630CDE360CF303E
:1002200006C79E7E3E30CDB360CF300CC6F660333D
:1002300030D9B660CF33CFCCF66061B0DB1E60CF73
:1002400030D86CE6C061B0DB1E618F19986CC6C0F7
:1002500063B19B0E330F0FB078C6FF7E1F1B061EC7
:100260000F0A0A153A49676E6F7265006D560A0AE1
:10027000504C45415345205455524E204F46462040
:10028000004C4F57204241545445525921200003FD
:10029000053F213F1208120A100A0E1C0E0C1E0CFC
:1002A000141A14161F161E131E1E1B1E1E1F1E3F81
:1002B000213F3A2F3A173D173F213F181F02040AEA
:1002C000041F0E04040E1F0A1F0A0E0E1F04110E37
:1002D0002E252E2F2A2E262929021F02081F081537
:1002E0000E04040E150E15151B151B040604040C34
:1002F000040000000017000300031F0A1F16371A2E
:100300001904130A153A000300000E11110E000A19
:10031000040A040E04003000040404001000180451
:10032000031F111F121F101D151711151F07041F82
:1003300017151D1F151D01011F1F151F17151F0064
:100340000A00003200040A110A0A0A110A040115FF
:10035000020E11171E051E1F150A0E110A1F110E7F
:100360001F15111F05010E111D1F041F111F11085C
:10037000100F1F041B1F10101F061F1E040F0E114D
:100380000E1F09060E112E1F051A121509011F0155
:100390001F101F0F180F1F0C1F1B041B031C03191A
:1003A0001513001F11030418111F00020102202061
:1003B000200001020C121E1F120C0C12120C121F34
:1003C0000C1A14041E05242A1E1F021C141D1020C2
:1003D000201D1F0814111F101E041E1E021C0C12CB
:1003E0000C3E0A040C123E1E040214160A020F12DE
:1003F0000E101E0E100E1E081E120C1226281E3283
:100400002A26041E21001F00211E040102013F2193
:100410003FF6E8DBCFC3B8AEA49B928A827B746EB2
:1004200068625C57524E4945413E3A3734312E2C72
:100430002927252321450068010000172B152010CE
:10044000204C4F4144455200172B16201314000A2C
:100450004E6F2053442063617264206F720A6E6F86
:10046000204C4F414445522E4845580A0A153A45FA
:10047000786974001D20466C617368696E670A2094
:10048000206C6F616465722E2E2E0A0A444F4E272F
:1004900054205455524E204F464621000000000083
:1004A00023002600290004040404040404040202B6
:1004B00002020202030303030303010204081020E3
:1004C00040800102040810200102040810200000EE
:1004D0000008000201000003040700000000000003
:1004E00000004F1611241FBECFEFD8E0DEBFCDBFF6
:1004F00011E0A0E0B1E0EEEAF1E302C005900D9258
:10050000A633B107D9F727E0A6E3B1E001C01D92F9
:10051000A93CB207E1F712E0C2E7D2E004C021979C
:10052000FE010E94CF18C137D107C9F70E948C1174
:100530000C94D5180C940000EFE3F7E014AE12AE63
:10054000109288071092870715AE1092C807109274
:10055000C7071092C6071092B4000895CF93DF9397
:10056000E0916D078E2F90E0880F991FE0916B0747
:10057000F0916C07E80FF91F859194918F3F9807D0
:1005800029F410926407DF91CF910895909370073A
:100590009927880F991FE0916E07F0916F07E80F78
:1005A000F91FC591D4910E949C02D0937207C09309
:1005B0007107109277071092760781E080936507A4
:1005C00089E080937A0710927D0710927F0710923E
:1005D000810780916D078F5F80936D07D4CF90E086
:1005E000880F991FE0917307F0917407E80FF91FC6
:1005F000259134913093840720938307F9018591E5
:10060000949190916807989F802D1124809385077D
:10061000F90165917491472F50E08417150629F070
:1006200020F0F90125913491832F989F802D11247A
:10063000809386070895833081F028F4813099F003
:100640008230A9F008958730A9F08830C9F084304D
:10065000B1F4809180008F7D03C0809180008F77FE
:1006600080938000089584B58F7784BD089584B504
:100670008F7DFBCF8091B0008F778093B00008957D
:100680008091B0008F7DF9CF1F93CF93DF93282FF8
:1006900030E0F901E253FB4F8491F901E654FB4F3E
:1006A000D491F901EA55FB4FC491CC23A9F0162F40
:1006B00081110E941B03EC2FF0E0EE0FFF1FEA53A5
:1006C000FF4FA591B4918FB7F894EC91111108C028
:1006D000D095DE23DC938FBFDF91CF911F910895DA
:1006E000DE2BF8CFCF93DF9390E0FC01E654FB4F75
:1006F00024918A559B4FFC0184918823C9F090E096
:10070000880F991FFC01E454FF4FA591B491FC019F
:10071000EA53FF4FC591D49161110DC09FB7F89472
:100720008C91209582238C938881282328839FBFD6
:10073000DF91CF910895623051F49FB7F8943C91C6
:10074000822F809583238C93E8812E2BEFCF8FB758
:10075000F894EC912E2B2C938FBFEACFFF920F933E
:100760001F93CF93DF93CFE3D7E0FF24FA9462E0A7
:100770008A850E9472032A8530E0F901E253FB4F1B
:100780008491F901E654FB4F0491F901EA55FB4FBE
:1007900014911123E1F081110E941B03E12FF0E07D
:1007A000EE0FFF1FE456FB4FA591B491EC918989A0
:1007B0000E2369F0811113C0219687E0C634D80753
:1007C000B1F6DF91CF911F910F91FF900895898924
:1007D0008F5F898B60E08A850E947203EDCF8F3F27
:1007E00011F4198AF7CFF98AF5CF1F93CF93DF93CE
:1007F000182FEB0161E00E947203209739F460E04A
:10080000812FDF91CF911F910C944403CF3FD105ED
:1008100011F461E0F5CFE12FF0E0E253FB4FE491FA
:10082000E33031F140F4E130B1F0E230E1F0C038D2
:10083000D1057CF7E4CFE73029F1E83059F1E43015
:10084000B1F780918000806280938000D0938B000C
:10085000C0938A0004C084B5806884BDC7BDDF91A1
:10086000CF911F91089584B5806284BDC8BDF7CF34
:1008700080918000806880938000D0938900C0932D
:100880008800EDCF8091B00080688093B000C09365
:10089000B300E5CF8091B00080628093B000C09338
:1008A000B400DDCF8E50806480937C0080917A000C
:1008B000806480937A0080917A0086FDFCCF8091DD
:1008C0007800909179000895809163078F7149F5C0
:1008D00084E10E945204BC01990F880B990B0E947D
:1008E000921726EE3FE34EEC50E40E94F6170E946A
:1008F00061179B0170935A0760935907672BB9F0F2
:1009000084E080935807EBE5F7E080E04191519156
:100910002417350718F48093580708958F5F8430A3
:10092000A9F7809163078F5F8093630708958FEF26
:1009300080935807F6CF3FB7F89480913505909192
:100940003605A0913705B091380526B5A89B05C09E
:100950002F3F19F00196A11DB11D3FBFBA2FA92F3E
:10096000982F8827BC01CD01620F711D811D911D3B
:1009700042E0660F771F881F991F4A95D1F70895A7
:100980008F929F92AF92BF92CF92DF92EF92FF929F
:100990004B015C010E949B046B017C010E949B0443
:1009A0006C197D098E099F09683E73408105910588
:1009B000A8F321E0821A9108A108B10888EEC80EB8
:1009C00083E0D81EE11CF11C81149104A104B10440
:1009D00029F7FF90EF90DF90CF90BF90AF909F905E
:1009E0008F900895DC01ED91FC910190F081E02D54
:1009F0000994EF92FF920F931F93CF93DF938C0193
:100A00007B01D0E0C0E0F701EC0FFD1F649166238D
:100A100061F0D801ED91FC910190F081E02DC801C9
:100A20000995892B11F02196EECFCE01DF91CF9160
:100A30001F910F91FF90EF900895AF92BF92CF92C8
:100A4000DF92EF92FF920F931F93CF93DF936C018E
:100A50007B018B01040F151FEB015E01AE18BF086F
:100A6000C017D10759F06991D601ED91FC91019021
:100A7000F081E02DC6010995892B79F7C501DF9139
:100A8000CF911F910F91FF90EF90DF90CF90BF908B
:100A9000AF9008952F923F925F926F927F928F92C4
:100AA0009F92AF92BF92CF92DF92EF92FF920F93FD
:100AB0001F93CF93DF93EC01F901E4903196849179
:100AC00064350CF015C10E2C000CFF08062F062E05
:100AD000000C110BF701E00FF11F1E161F060CF0A2
:100AE00007C140330CF004C1A82FC42E042E000C03
:100AF000DD085601A80EB11C87FDBA941A141B0418
:100B00000CF0F6C02E5F3F4F570197E0A90EB11CC5
:100B1000B7FE04C05701BEE0AB0EB11CB3E0B59404
:100B2000A794BA95E1F747FF0AC0A42FA80FAC9C81
:100B3000C001AD9C900D1124281B390B40E08A2F79
:100B40000A2E000C990B840F911D47FD9A95C197B1
:100B500014F0A0E3A41BF8A067FD60E0E535F10503
:100B600014F0E4E5F0E09E2FCC85C427C62E062EB7
:100B7000000CDD08F601E01BF10B8F014F01F7E0DF
:100B80008F229924E0E8F0E002C0F595E7958A9479
:100B9000E2F77E2F17FF02C0095F1F4FF3E01595A4
:100BA0000795FA95E1F7200F311F542F577081E018
:100BB00001C0880F5A95EAF7459545954595F60188
:100BC000B4E54B02E00DF11D1124AF01415C5A4F19
:100BD000D0E02A2EAA0F3308EE24E394BB24D215CA
:100BE00013040CF085C0F9015490F1E0FF121AC013
:100BF000962E8A01E72F6901991608F057C08E2EAC
:100C0000852021F0D8018C90882A8C92E69531F4C9
:100C1000BFEFCB1ADB0AF6015490E0E893940F5F24
:100C20001F4FEACFF1101CC0782E7094962E8A01C7
:100C3000E72F6901991608F039C08E2E852021F022
:100C4000D8018C9087208C92E69531F4BFEFCB1AB7
:100C5000DB0AF6015490E0E893940F5F1F4FEACF50
:100C6000F3E0FF122CC0782E7094862E8A01972E06
:100C700069018916D0F4E92DE52141F0D801EC9104
:100C80006C2E682460FE0FC0E82BEC93969439F428
:100C9000BFEFCB1ADB0AF6015490E0E89E2E839456
:100CA0000F5F1F4FE6CFE721F0CFCE25880F19F455
:100CB0004C5A5F4F81E0DF5F2A0D3B1D90CF962E8F
:100CC0008A01E72F6901991688F78E2E852021F079
:100CD000D8018C9088268C92E69531F4BFEFCB1A20
:100CE000DB0AF6015490E0E893940F5F1F4FEBCFBF
:100CF000DF91CF911F910F91FF90EF90DF90CF90F8
:100D0000BF90AF909F908F907F906F905F903F903B
:100D10002F9008951F93CF93DF93EC01162FF89433
:100D200060E08F850E944403888918161CF460E0F7
:100D30000E9444031EBD00000DB407FEFDCF8EB51A
:100D4000888918161CF461E00E9444037894DF91AE
:100D5000CF911F910895EF92FF921F93CF93DF934E
:100D6000EC018C858F5F8C878FE3E82E85E0F82E71
:100D700010E0612F6064CE010E948A0660E8CE0117
:100D80000E948A0661E08F850E94440388891816B4
:100D90001CF460E00E944403F70184E591919EBD3C
:100DA00000000DB407FEFDCF9EB58150B9F78889CC
:100DB00018161CF461E00E9444031F5F84E5E80EEE
:100DC000F11C1630B1F660E4CE01DF91CF911F9196
:100DD000FF90EF900C948A06DC01643570F5403387
:100DE00060F590968C919097E62F062E000CFF0BE5
:100DF000242F25952595259594E52902E00DF11DD3
:100E00001124E15CFA4F2081342F37708230B1F425
:100E1000822F90E0032E02C0959587950A94E2F701
:100E200080958170811114C081E090E001C0880F2D
:100E30003A95EAF78095822380830895833091F76D
:100E40001C968C9181706427609561708613ECCF3D
:100E500081E090E001C0880F3A95EAF7822BECCF51
:100E6000AF92BF92CF92DF92EF92FF920F931F93B8
:100E7000CF93DF93182F062FC0E0D3E08AEFD82E50
:100E80009EEFE92E842F8470C82E842F8270B82E96
:100E9000842F8870A82E4170F42ECF5F8C2F880F7E
:100EA0008F5FE80ECC2081F0402F4D0F612F6C0F2B
:100EB0008DE897E00E94EC06402F4C0F6D2F610FDC
:100EC0008DE897E00E94EC06BB2081F0402F4D1B7F
:100ED000612F6C0F8DE897E00E94EC06402F4C1BB1
:100EE0006D2F610F8DE897E00E94EC06AA2081F03B
:100EF000402F4C0F612F6D1B8DE897E00E94EC0690
:100F0000402F4D0F612F6C1B8DE897E00E94EC067F
:100F1000FF2081F0402F4C1B612F6D1B8DE897E067
:100F20000E94EC06402F4D1B612F6C1B8DE897E053
:100F30000E94EC06CD173CF4E7FCAFCFD150D39420
:100F4000D394ED0CAACFDF91CF911F910F91FF9019
:100F5000EF90DF90CF90BF90AF9008950F931F93C5
:100F6000CF93DF93D82F162F042FC0E0C0174CF477
:100F7000412F4C0F6D2F8DE897E00E94EC06CF5F5C
:100F8000F5CFDF91CF911F910F9108958F929F928E
:100F9000AF92BF92CF92DF92EF92FF920F931F9387
:100FA000CF93DF93082FA62E842E922E83E0F82E67
:100FB000D0E0C3E09AEFE92E1EEFBB24B394B20E4B
:100FC000DF5F1F0D4C2F440F6A2D6C1BC92CCF0CFB
:100FD000DA2CDD1A81E04B0D881215C0802F8D0FA1
:100FE0000E94AE074C2D6D2D8C2F800F0E94AE07F6
:100FF000DC1794F417FD04C0C150E394E3941E0D74
:10100000F394F394DDCF802F8D1B0E94AE074C2DFF
:101010006D2D802F8C1BEACFDF91CF911F910F9107
:10102000FF90EF90DF90CF90BF90AF909F908F9008
:101030000895CF92DF92EF92FF920F931F93CF9379
:10104000DF937C01D62EC22EC42F002E000C110B74
:10105000040F111D47FD1A958C2F0C2E000C990BB7
:10106000801791076CF4D0E0DC1544F46D2D6D0F02
:101070004C2FC7010E94EC06DF5FF6CFCF5FECCFAD
:10108000DF91CF911F910F91FF90EF90DF90CF9064
:1010900008954F925F926F927F928F929F92AF923C
:1010A000BF92CF92DF92EF92FF920F931F93CF9355
:1010B000DF93EC016A3049F428859D818A85299F58
:1010C000800D11248A871986A6C06D3009F4A3C04B
:1010D000898483E588150CF487C0DA848FE28D1546
:1010E0000CF482C018852C812150330B129FC00153
:1010F000139F900D1124880D911D87FC9A95181649
:1011000019060CF071C02D818D2D0D2C000C990B42
:10111000129F800D911D1124181619060CF064C041
:1011200078A0C82C912CE62EF12C292D092C000C2E
:10113000330B8C8190E0281739070CF054C00197CD
:10114000E0E02817390771F0E89EF001E99EF00D04
:10115000F89EF00D11242E0F3F1FEE8DFF8DE20F34
:10116000F31FE4915D2C612C492C480C2D81862DB8
:10117000062C000C990B2817190691F18CF1AE2E54
:10118000B12CE0FF16C0113061F4462D4D0D642DD9
:10119000CE010E94EC06F501F595E7956394510E9A
:1011A000E5CF012F212F452D6C2DCE010E9419086E
:1011B000F2CF89A198A1891771F388A3113041F466
:1011C000462D4D0D642DCE010E94EC0678A2E3CF92
:1011D000012F212F452D6C2DCE010E941908F6CF2D
:1011E0009394C10EA2CF78A228853C818985239F44
:1011F000800D112489879F81992369F0082E000CA6
:10120000990B44E550E0239F4019510911244817D8
:1012100059070CF452CF81E090E0DF91CF911F91FC
:101220000F91FF90EF90DF90CF90BF90AF909F9085
:101230008F907F906F905F904F900895DF92EF9224
:10124000FF920F931F93CF93DF93C0914A01C15038
:10125000DD0B50E0082E000C990B35E0D32E8C01ED
:10126000040F111D062E000C770B7B01E20EF11C02
:10127000252F30E02C173D072CF5D29EF001D39E90
:10128000F00D1124EA5BFE4F23813181A0810A2EEB
:10129000000CBB0BE281EA0FFB2FF11D8E179F079D
:1012A0007CF4A017B10764F4E32F330FFF0B2E0F6C
:1012B0003F2F311D621773071CF4EE15FF055CF01C
:1012C0005F5FD6CF80E0DF91CF911F910F91FF90AC
:1012D000EF90DF90089581E0F6CF089590E080E0F0
:1012E0000895FB0101900020E9F73197AF01461BFB
:1012F000570BDC01ED91FC910280F381E02D099404
:10130000CF93DF93BC018DE897E00E94F904EC01D4
:1013100063E171E08DE897E00E9471098C0F9D1FD9
:10132000DF91CF910895EFE3F5E088EF91E0DF01E1
:101330009C011D9221503040E1F7109296071092C7
:10134000970764E774E08DE897E00E94F9048DE860
:1013500097E00E94AB068CB583608CBD8DB58E7F07
:101360008DBD86E191E0EEEFFFE3099510929307C2
:101370008FE494E00E9480098DE897E00E94AB061C
:101380000E94AE0380915407813039F062E370E02F
:1013900080E090E00E94C004F3CF08958F929F9266
:1013A000AF92BF92EF92FF920F931F93CF93DF9371
:1013B000CDB7DEB7A1970FB6F894DEBF0FBECDBF95
:1013C0007C01FA01CB0119A2223008F42AE08E0137
:1013D0000F5D1F4F822E912CB12CA12CBF01A501B6
:1013E00094010E943017F901CA016A300CF5605D62
:1013F000D8016E938D01232B242B252B79F790E0B8
:1014000080E0109721F0BD01C7010E947109A196EB
:101410000FB6F894DEBF0FBECDBFDF91CF911F9105
:101420000F91FF90EF90BF90AF909F908F90089595
:10143000695CDECFCF92DF92EF92FF920F931F9302
:10144000CF93DF9377FF1DC06A017B01EC016DE252
:101450000E94F2048C0144275527BA014C195D09FA
:101460006E097F092AE0CE010E94CE09800F911FEC
:10147000DF91CF911F910F91FF90EF90DF90CF9070
:1014800008952AE0DF91CF911F910F91FF90EF9087
:10149000DF90CF900C94CE094F925F926F927F9223
:1014A0008F929F92AF92BF92CF92DF92EF92FF9274
:1014B0000F931F93CF93DF9300D000D01F92CDB72F
:1014C000DEB74091BF075091C0076091C10770918E
:1014D000C2072FB7F89480913B0590913C05A091ED
:1014E0003D05B0913E052FBF481B590B6A0B7B0B86
:1014F0008091BE0790E0B0E0A0E00091BA071091A3
:10150000BB072091BC073091BD0784179507A6073C
:10151000B70708F0CEC0011511052105310509F402
:10152000C8C02FB7F89480913B0590913C05A091DD
:101530003D05B0913E052FBF2091BE07820F911D42
:10154000A11DB11D8093BF079093C007A093C10751
:10155000B093C2078091B0079091B107A091B207F4
:10156000B091B3070196A11DB11D8093B007909370
:10157000B107A093B207B093B3071092BA071092C5
:10158000BB071092BC071092BD070E949B0460939A
:10159000B6077093B7078093B8079093B907809107
:1015A0004007909141072FE0289FA001299F500DEF
:1015B00011245A83498385E10E945204A981BA818A
:1015C0008A0F9B1FB4E096958795BA95E1F79093A3
:1015D00041078093400720913F07222309F448C028
:1015E00060914307262F30E050E040E029833A83A2
:1015F0004B835C83C0904407D12CF12CE12C4091AB
:101600004707509148074A01B12CA12C209145076A
:10161000309146072901712C612C8217930728F01D
:101620009C014817590708F49A0150E040E024193A
:1016300035094609570969817A818B819C816C192A
:101640007D098E099F090E948B18A5019401241918
:101650003509460957090E94FE16C20ED31EE41E24
:10166000F51EC09242076C2D70E085E00E94F503E4
:101670000E94AE0380915B0790915C07892B11F06B
:101680000E94640481E00F900F900F900F900F90D4
:10169000DF91CF911F910F91FF90EF90DF90CF904E
:1016A000BF90AF909F908F907F906F905F904F9082
:1016B0000895012B022B032B09F089C18091560755
:1016C00081508E3FB8F580915507813099F5809112
:1016D00069078F5F60916A0787FD09C0082E000CBB
:1016E000990B70E06F5F7F4F0E94A718682F60937F
:1016F000690788E494E09093C4078093C30788E463
:101700008093C5070E949C0285E394E09093720742
:1017100080937107109277071092760781E080938B
:10172000650789E080937A0710927D0710927F0702
:10173000109281078091560781508E3F70F48091FE
:101740005407813009F026C38BE394E09093C407DB
:101750008093C30788E48093C5078091640788233A
:1017600031F080916507811102C00E94AE02809124
:101770006507882309F43EC08091790781113AC03A
:101780008091710790917207E0917607F091770749
:10179000EE0FFF1FE80FF91F259134912115310538
:1017A00009F46CC1A9015695479556954795842F24
:1017B00020FD0FC18F738093780780916807839F06
:1017C000802D112480937907109289071092880741
:1017D0001092870781E080937B078093C607109261
:1017E0007C07809176079091770701969093770711
:1017F0008093760780917B07882331F08091790769
:10180000811156C10E949C028091C507882309F46A
:1018100092C08C3008F033C23CE0381B3983FF247F
:10182000F394F09295071092AD071092AE07409195
:1018300092074D831981141B042F0D5F4DE2410F58
:101840002EE463E08DE897E00E9419085D81545012
:101850005D83105D252F41E0612F80E50E94C60762
:101860002D8142E0612F83E00E94C607F092AD0710
:10187000F092AE070091920783E0800F8D8319816B
:10188000101B9DE2E92EE10E23E0F22E4E2D6F2D6E
:101890008DE897E00E94EC06F39491E5F912F6CFFB
:1018A000AD81AE0DAD83EA2EEA9483E0F82E4E2D85
:1018B0006F2D8DE897E00E94EC06F394B1E5FB12E2
:1018C000F6CF0350105D402F612F80E00E94AE07DD
:1018D000402F612F83E50E94AE0741E0612F83E036
:1018E0000E94300742E0612F80E50E9430072D8181
:1018F00024502D8344E0622F80E50E94300748E0A9
:101900006D8183E00E94300784E080939607809188
:1019100092073981381B315D309397076091C30777
:101920007091C4078DE897E00E94F9048091C50783
:1019300081508093C50780915B0790915C07892B4C
:10194000E1F041E04093AD071092AE07909191070E
:1019500085E5891B80939607109297076091580739
:10196000613009F4FBC108F48CC1809157076530E0
:1019700008F00BC26B5F811103C28DE897E00E94F3
:10198000AB068091930781110EC0EFE3F5E088EF7D
:1019900091E0DF019C011D9221503040E1F710924F
:1019A0009607109297070E949B046093BA07709362
:1019B000BB078093BC079093BD072091B607309179
:1019C000B707621B730B7093B5076093B40780E091
:1019D0005ACEC901E6E096958795EA95E1F78F71B1
:1019E000932F96959695969590514F70423099F118
:1019F000D0F4442309F43CC04130B9F1E0917607BA
:101A0000F09177073196F0937707E0937607CF014F
:101A1000880F991FE0917107F0917207E80FF91F85
:101A200025913491BFCE433061F0443039F7209195
:101A30006807289F802D1124809381079093820747
:101A4000DDCF20916807289F802D112480937F0788
:101A500090938007D3CF20916807289F802D112471
:101A600080937D0790937E07C9CF0E94EF02C6CF77
:101A70008B3008F08AE080937A07C0CF20917507F9
:101A8000211110C01092650780916407811103C075
:101A90000E949C02AFCE0E94AE0280917607909188
:101AA0007707B6CF1092770710927607FC01B8CF70
:101AB00081508093790780918907811142C02091DC
:101AC0008707309188072F5F3F4FC901880F991F03
:101AD000E0918307F0918407E80FF91F85919491B5
:101AE000482F477040938A07492F46954695409363
:101AF0008B07AC0164E0569547956A95E1F74F7303
:101B000090916807499F402D11244093890783FBDA
:101B1000882780F980933A053093880720938707B8
:101B20008091850790E02817390758F020918607A3
:101B3000222309F49EC0821B910990938807809309
:101B400087078091890781508093890780917C075E
:101B500031E0380F30937C074091780720918B0754
:101B6000240F80917007280F2093660760917F07EC
:101B7000662371F070E0832F032E000C990B0E94F6
:101B8000A71880918007869F200D11242093660757
:101B90008091660790E0849664E270E00E94A71846
:101BA0008093660720917A072093670760917D07ED
:101BB000662381F0062E000C770B832F032E000C7A
:101BC000990B0E94A71880917E07869F200D1124F3
:101BD00020936707609181076623A1F0832F330F5D
:101BE000990B70E00E94A718CB0162E070E00E94A0
:101BF000A7182091820790916707289F900D1124C4
:101C0000909367074F33C1F1809167078A300CF0DA
:101C100089E087FD80E080936707F894E09166078C
:101C2000F0E0EF5EFB4FE491E093390520918C07E3
:101C30003091670732039001112440918A074203D3
:101C4000C001439F900D11242091690702C0880FA5
:101C5000991F2A95E2F797FF02C081589F4F880F7E
:101C6000892F881F990B8093C7078093C8077894A2
:101C7000CBCD0E949C0265CF10926707CECF198210
:101C8000CECD0E949C021092650751E050939507BB
:101C9000EFE8F2E0E491EF5FE0939107E0E9F2E032
:101CA000E491EF5FE093920781E992E09093AC07B3
:101CB0008093AB0710925C0710925B07109293071A
:101CC00088EA89830E944C0A8823E1F361E872E084
:101CD0008DE897E00E94F9044091590750915A0706
:101CE00070E060E02AE08DE897E00E94CE096CE6A3
:101CF00072E08DE897E00E94F904498142954F70A7
:101D000050E070E060E08DE897E00E941A0A61E61A
:101D100072E08DE897E00E94F904809154078130C9
:101D200009F42BCE9981915099839111CBCF70E01A
:101D300060E085E00E94F50383B7817F846083BF04
:101D400083B7816083BF83B7816083BF889583B782
:101D50008E7F83BF83B78E7F83BFB4CF8091B00760
:101D60009091B107A091B207B091B3078F709927F6
:101D7000AA27BB2767E00897A105B10508F068E727
:101D80008DE897E00E94F204F8CD882309F4F5CDA0
:101D90006FE2F6CF893209F0E0CC0E949309DDCCE6
:101DA0008F929F92AF92BF92CF92DF92EF92FF926B
:101DB0000F931F93CF93DF9381E080939507109249
:101DC000940710929307109257078093AD07809362
:101DD000AE07CAECD1E08CE0F82E05E314E0EE2467
:101DE000E39499E0D92E0E944C0A8823E1F3FE0186
:101DF000C490C110C090920721EF31E040E060E054
:101E00008DE897E00E944A054CE04C0D28ED30E04B
:101E100060E08DE897E00E944A0510929607F092E4
:101E200097076AEC71E08DE897E00E94F9048091D1
:101E30009107982F990F990F891B8D5A80939607B8
:101E400080919207982F990F990F891B835D80933A
:101E500097078091B00784FF78C08DEE91E00E94D3
:101E6000800980919107982F990F990F891B8D5A9E
:101E700080939607809197078F5F80939707809153
:101E80006907882309F464C085EE91E00E94800907
:101E900080919107982F990F990F891B8D5A8093E4
:101EA0009607809197078F5F809397078DED91E05C
:101EB0000E94800980915507813031F58091690732
:101EC0008F5F60916A0787FD09C0082E000C990B8F
:101ED00070E06F5F7F4F0E94A718682F60936907BB
:101EE0000E949C021093720700937107109277076B
:101EF00010927607E0926507D0927A0710927D07DC
:101F000010927F071092810780915407813019F158
:101F10008091AF07482F50E070E060E08090B007FC
:101F20009090B107A090B207B090B30784169506C1
:101F3000A606B70610F08F3F71F4809156078130E6
:101F400009F051CF0E9493094ECF89EE91E087CFDF
:101F500081EE91E09BCF8FEF8093AF070E949C02B0
:101F6000109265070E949C0280ED90E090937207AA
:101F700080937107109277071092760781E0809323
:101F8000650799E090937A0710927D0710927F077A
:101F90001092810780935707DF91CF911F910F9186
:101FA000FF90EF90DF90CF90BF90AF909F908F9079
:101FB0000895CF93DF93BC018DE897E00E947109EB
:101FC000EC0163E171E08DE897E00E9471098C0FEC
:101FD0009D1FDF91CF9108956F927F928F929F9274
:101FE000AF92BF92CF92DF92EF92FF920F931F9327
:101FF000CF93DF9310923E01109245010E94A616E6
:1020000022E030E040E050E00E94FE16662E6111B2
:1020100081C088E080933A0184E080933B0182E0B4
:1020200080933C01E62CF12C87E0689EF00111249E
:10203000E85CFE4F8281C4E5D0E0C81BD109712C59
:102040001C161D064CF40E94A6169E01DD0F440BC3
:10205000550B0E94FE16762E87E08E9DF0018F9D17
:10206000F00D1124E85CFE4F8381C0E3D0E0C81B73
:10207000D1091C161D060CF058C00E94A6169E0120
:10208000DD0F440B550B0E94FE16C62F87E08E9D78
:1020900080018F9D100D1124085C1E4F680192E095
:1020A000C90ED11C7801E3E0EE0EF11C84E5A82EE8
:1020B000B12C90E3892E912CF601D081F70120817B
:1020C0004D2F6C2F872D0E941E09882391F1C50189
:1020D0008D1B9109EC01712C181619064CF40E9405
:1020E000A6169E01DD0F440B550B0E94FE16762EA0
:1020F000F7018081E401C81BD1091C161D06BCF440
:102100000E94A6169E01DD0F440B550B0E94FE1681
:10211000C62FD2CF613009F085CF88E0809341018E
:1021200080934201609243017DCFC0E0AFCFC0E019
:10213000C3CFF8017082C183658281E08683DF911D
:10214000CF911F910F91FF90EF90DF90CF90BF90B4
:10215000AF909F908F907F906F90089510922E0572
:1021600010922F05109230051092310588EC90E006
:1021700090930201809301012FB7F89460913B0581
:1021800070913C0580913D0590913E052FBF6115F2
:1021900071058105910511F00E94F5161092320526
:1021A00082E080934A0184E0809348018093490152
:1021B00088E18093460188E280934701E6E4F1E0FC
:1021C00080914801982F919595839683878380917C
:1021D0004901808780914A018187359685E0E932FF
:1021E000F80771F70E94EC0F1092330508951F92C3
:1021F0000F920FB60F9211242F933F938F939F93BB
:10220000AF93BF9380913B0590913C05A0913D0514
:10221000B0913E053091340523E0230F2D3758F55A
:102220000196A11DB11D2093340580933B05909329
:102230003C05A0933D05B0933E05809135059091F6
:102240003605A0913705B09138050196A11DB11D45
:102250008093350590933605A0933705B0933805E4
:10226000BF91AF919F918F913F912F910F900FBE92
:102270000F901F90189526E8230F0296A11DB11DFF
:10228000D2CF1F920F920FB60F9211242F936F93FC
:102290007F938F939F936091C707662349F1809145
:1022A00036018F5F8093360190913905891700F1CF
:1022B0002091C60781E028272093C6071092360197
:1022C00080913A05882369F08091000193E4899F09
:1022D000802D1124895B809300010E949B189093AC
:1022E000C8078091C807211101C080E08093B40025
:1022F0009F918F917F916F912F910F900FBE0F90B3
:102300001F901895FB0105900020E9F760957095E6
:102310006E0F7F1FCB010895789484B5826084BDD1
:1023200084B5816084BD85B5826085BD85B58160D9
:1023300085BD80916E00816080936E001092810057
:102340008091810082608093810080918100816012
:1023500080938100809180008160809380008091D3
:10236000B10084608093B1008091B000816080935F
:10237000B00080917A00846080937A0080917A0026
:10238000826080937A0080917A00816080937A00E5
:1023900080917A00806880937A001092C10082E375
:1023A0008093BE0781E090E0A0E0B0E08093BA07A0
:1023B0009093BB07A093BC07B093BD078FEF8093AA
:1023C000AF07E0E8F7E7259134912130304C09F070
:1023D0008AC2E6E9F7E7E491E0939807E7E9F7E7CF
:1023E000E491E0934307E8E9F7E7E491E0934407D9
:1023F000E9E9F7E785919491909346078093450723
:10240000EBE9F7E78591949190934807809347070C
:1024100087E080936A07EEE9F7E7E491E0936907C4
:10242000EFE9F7E7E491E093AF07E0EAF7E785919A
:10243000949190935C0780935B07E2EAF7E78591BC
:10244000949190935E0780935D07E4EAF7E78591A6
:1024500094919093600780935F07E6EAF7E7859190
:1024600094919093620780936107C1E0C0933F0706
:102470006FEF70E085E00E94F50388E080934907E4
:1024800089E080934A0787E080934B0786E080933A
:102490004C07D4E0D0934D0782E080934E0781E152
:1024A00080934F070E94AE038CE39FE090935A07FE
:1024B00080935907D0935807C09363078BE08093AC
:1024C0009B078DE080939A0780E180939C078EE0C4
:1024D00080939E078FE080939D07C0939507C093DC
:1024E000AD071092AE07C0939407EFE8F2E0E491D5
:1024F000EF5FE0939107E0E9F2E0E491EF5FE093B2
:10250000920781E992E09093AC078093AB07CFB735
:10251000F89480913701811127C0E0EBF4E08491B9
:10252000E4ECF4E09491E82FF0E0EE0FFF1FE454A8
:10253000FF4FA591B491EC91E92321F461E08AE089
:102540000E94440361E08AE00E9472038CB58061BE
:102550008CBD8CB580648CBD61E08DE00E947203FF
:1025600061E08BE00E947203809137018F5F80935E
:102570003701CFBF8CB58F7D8CBD8CB58C7F8160D2
:102580008CBD8DB581608DBD8CB58C608CBD61E0DE
:1025900080919B070E94720361E080919A070E94DC
:1025A000720361E080919C070E94720380919E07F4
:1025B00018161CF461E00E94720380919D071816A2
:1025C0001CF461E00E94720380919E07181674F457
:1025D00060E00E9444036AE070E080E090E00E94C6
:1025E000C00461E080919E070E94440380919A0795
:1025F000082E000C990BFC01EA55FB4FE491F0E02A
:10260000EE0FFF1FEA53FF4F259134913093A2073D
:102610002093A107FC01E654FB4FE491E093A80747
:1026200080919B07082E000C990BFC01EA55FB4F8B
:10263000E491F0E0EE0FFF1FEA53FF4F2591349134
:102640003093A00720939F07FC01E654FB4FE491D1
:10265000E093A70780919D07082E000C990BFC01C1
:10266000EA55FB4FE491F0E0EE0FFF1FEA53FF4FF6
:10267000259134913093A4072093A307FC01E654DD
:10268000FB4FE491E093A90780919C07082E000C72
:10269000990BFC01EA55FB4FE491F0E0EE0FFF1FB0
:1026A000EA53FF4F259134913093A6072093A50755
:1026B000FC01E654FB4FE491E093AA0761E28DE848
:1026C00097E00E948A0664E18DE897E00E948A06FE
:1026D0008091980787FF03C08FE7809398076091E8
:1026E000980760688DE897E00E948A0660E28DE8AE
:1026F00097E00E948A066CE08DE897E00E948A06C7
:102700008DE897E00E94AB0681E08093680784E043
:1027100080938C0780E790E0909374078093730711
:1027200080E00E94EF0261E070E083E00E94F50328
:102730008091B100887F81608093B100F8941092FD
:10274000800010928100109285001092840088E130
:1027500091E0909389008093880080918100886047
:1027600080938100809181008160809381008091BD
:102770006F00826080936F00789480915B079091E6
:102780005C07892B11F00E94640480915507813009
:1027900009F4D6C080915807882309F4D1C00E945B
:1027A0009C0284E790E090937207809371071092E7
:1027B00077071092760781E08093650789E0809320
:1027C0007A0710927D0710927F071092810710926E
:1027D00057078091AF0781110E94D00E0E94AE1062
:1027E00046E4442E41E0542E84EB90E06C01990FB6
:1027F000EE08FF0850E3252E312C15E077247A945B
:1028000038EC632E0E944C0A882309F4D1C18091D0
:102810005607813039F48091AF0781110E94D00EA4
:102820000E94AE1080915407813021F080915507AD
:10283000813031F48091330591E08927809333050D
:1028400080913305811106C280915007813039F49F
:1028500080913205815087FD76C08093320580914A
:102860005207813041F4809132058F5F84300CF043
:102870006CC0809332058FB7F89480903B059090A0
:102880003C05A0903D05B0903E058FBF80912E0580
:1028900090912F05A0913005B0913105B501A401AB
:1028A000481B590B6A0B7B0B80910101909102012F
:1028B000092E000CAA0BBB0B481759076A077B07A8
:1028C00008F4C8C180914A018150819FF001112410
:1028D000EA5BFE4F35978823D9F1908195839181EA
:1028E00096838150F7CF9CE390939807109243070B
:1028F0008093440780E293E09093460780934507D6
:1029000084ED93E0909348078093470787E0809396
:102910006A07809369078CEA9DE090935C07809337
:102920005B078EED9DE090935E0780935D0784E7E3
:102930009EE09093600780935F078CE39FE091CDCA
:102940001092690744CF83E088CF1092320593CF6D
:1029500090914701809146013091320540914801A4
:1029600020914901313009F496C00CF08BC0941BC2
:10297000332309F493C08091460187FF04C084E5A6
:10298000841B809346018091470187FF04C080E348
:10299000821B8093470180914601082E000C990B01
:1029A00064E570E0621B71096817790714F41092EE
:1029B000460180914701082E000C990B9101241BC0
:1029C00031092817390714F410924701C8E3D1E000
:1029D0002B814A81698188810E941E098823A1F088
:1029E0008E81882389F080914A011E829C81890F03
:1029F000893C08F056C080934A0180914A01883C86
:102A000008F052C00E94EC0F27964C165D0601F7A5
:102A100070914A0140914701042E000C550B8091A2
:102A20004601082E000C990BC0914801C80FD92F00
:102A3000D11DA0914901A40FB52FB11DE6E4F1E02D
:102A400061E0671708F0FEC02581022E000C330BF1
:102A50002C173D07A4F40781200F311D821793071F
:102A600074F42681022E000C330B2A173B073CF42A
:102A70000085200F311D421753070CF4A1C06F5F72
:102A80003596DFCF323049F0821B333009F073CFF7
:102A90008093460170CF820FFBCF940F9093470134
:102AA0006ACF60924A01A9CF79827882ADCF823015
:102AB00011F1833009F0F1C0C11115C022E830E0F6
:102AC0001EC02DE930E0CC23D1F01C9FF001112471
:102AD000EA5BFE4F28E930E04181608114C023E9C0
:102AE00030E0CC2361F01C9FF0011124EA5BFE4F23
:102AF0002EE830E0F1CF27E830E0C111E6CF409179
:102B00004701609146018DE897E00E944A05C5C0E3
:102B1000C8E3D1E08E81882379F08D812EEA30E000
:102B2000882321F0813041F424EA30E04981688132
:102B30008DE897E00E944A0527964C165D0651F7EE
:102B4000809133058823A1F1109297071092AD0769
:102B50001092AE07009192070F5F24E540E060E01D
:102B60008DE897E00E94190881E08093AD0780937B
:102B7000AE07C701B6010E948211309195072091DE
:102B80009107329F90011124FC012E9FC0012F9FBD
:102B9000900D3E9F900D1124969587959AE2981B73
:102BA0009093960764EB70E08DE897E00E94F9043B
:102BB00080E090E0892B09F425CE0E9400001DCE14
:102BC000EFE3F5E048EF51E0119241505040E1F75A
:102BD00010929607109297078DE191E00E94D90F0D
:102BE00063E171E08DE897E00E94710983E291E072
:102BF0000E94D90F63E171E08DE897E00E947109AE
:102C00008EE291E00E94D90F40914A014250550B4B
:102C1000052E000C660B770B8DE897E00E941A0AD0
:102C200063E171E08DE897E00E9471098DE897E01B
:102C30000E94AB060E94AE1068EB7BE080E090E063
:102C40000E94C00480922E0590922F05A09230051C
:102C5000B092310581E0809395071092960710920B
:102C6000970740914A014250550B052E000C660B08
:102C7000770B8DE897E00E941A0AC0E080914A0124
:102C8000C81708F045CF80913205813009F427CF6D
:102C90000CF00DCF882309F414CFCF5FEFCF109243
:102CA000900710928F078BE091E090938E078093AE
:102CB0008D0708958F929F92AF92BF92CF92DF922D
:102CC000EF92FF92CF93DF93EC01688179818A8143
:102CD0009B81611571058105910521F464E279ED0F
:102CE0008BE597E02DE133EF41E050E00E94FE16C6
:102CF00049015A019B01AC01A7EAB1E40E941D17EA
:102D00006B017C01ACEEB4EFA50194010E942B177E
:102D1000C60ED71EE81EF91EF7FE06C081E0C81ACF
:102D2000D108E10880E8F80AC882D982EA82FB82E9
:102D3000C701B6019F77DF91CF91FF90EF90DF90B1
:102D4000CF90BF90AF909F908F9008958F929F9259
:102D5000AF92BF92CF92DF92EF92FF926091030108
:102D60007091040180910501909106016115710532
:102D70008105910521F464E279ED8BE597E02DE181
:102D800033EF41E050E00E94FE1649015A019B01D9
:102D9000AC01A7EAB1E40E941D176B017C01ACEE07
:102DA000B4EFA50194010E942B17C60ED71EE81E92
:102DB000F91EF7FE06C081E0C81AD108E10880E8D4
:102DC000F80AC0920301D0920401E0920501F0924A
:102DD0000601C701B6019F77FF90EF90DF90CF907B
:102DE000BF90AF909F908F90089560930301709370
:102DF000040180930501909306010895052E97FB29
:102E00001EF400940E94151757FD07D00E9430173A
:102E100007FC03D04EF40C9415175095409530954F
:102E200021953F4F4F4F5F4F089590958095709536
:102E300061957F4F8F4F9F4F08950E945217A59F16
:102E4000900DB49F900DA49F800D911D11240895A5
:102E5000B7FF0C941D170E941D17821B930B08953A
:102E6000A1E21A2EAA1BBB1BFD010DC0AA1FBB1F8E
:102E7000EE1FFF1FA217B307E407F50720F0A21B00
:102E8000B30BE40BF50B661F771F881F991F1A946D
:102E900069F760957095809590959B01AC01BD0197
:102EA000CF010895A29FB001B39FC001A39F700DF1
:102EB000811D1124911DB29F700D811D1124911D42
:102EC00008950E94D51788F09F5798F0B92F992739
:102ED000B751B0F0E1F0660F771F881F991F1AF005
:102EE000BA95C9F714C0B13091F00E94EF17B1E064
:102EF00008950C94EF17672F782F8827B85F39F063
:102F0000B93FCCF3869577956795B395D9F73EF49D
:102F100090958095709561957F4F8F4F9F4F089545
:102F2000E89409C097FB3EF4909580957095619563
:102F30007F4F8F4F9F4F9923A9F0F92F96E9BB2719
:102F40009395F695879577956795B795F111F8CF95
:102F5000FAF4BB0F11F460FF1BC06F5F7F4F8F4F00
:102F60009F4F16C0882311F096E911C0772321F0F6
:102F70009EE8872F762F05C0662371F096E8862F8E
:102F800070E060E02AF09A95660F771F881FDAF7E5
:102F9000880F9695879597F9089557FD9058440F97
:102FA000551F59F05F3F71F04795880F97FB991FA8
:102FB00061F09F3F79F08795089512161306140665
:102FC000551FF2CF4695F1DF08C0161617061806F2
:102FD000991FF1CF86957105610508940895E894CD
:102FE000BB2766277727CB0197F908950E94091818
:102FF0000C947A180E946C1838F00E94731820F014
:10300000952311F00C9463180C94691811240C94F6
:10301000F0170E94CD1770F3959FC1F3950F50E004
:10302000551F629FF001729FBB27F00DB11D639F7A
:10303000AA27F00DB11DAA1F649F6627B00DA11D20
:10304000661F829F2227B00DA11D621F739FB00DC6
:10305000A11D621F839FA00D611D221F749F332736
:10306000A00D611D231F849F600D211D822F762FCF
:103070006A2F11249F5750409AF0F1F088234AF0AC
:10308000EE0FFF1FBB1F661F771F881F9150504018
:10309000A9F79E3F510580F00C9463180C94F0172B
:1030A0005F3FE4F3983ED4F3869577956795B7959F
:1030B000F795E7959F5FC1F7FE2B880F911D9695B9
:1030C000879597F9089597F99F6780E870E060E029
:1030D00008959FEF80EC089500240A9416161706B1
:1030E00018060906089500240A94121613061406F9
:1030F00005060895092E0394000C11F4882352F05C
:10310000BB0F40F4BF2B11F460FF04C06F5F7F4F13
:103110008F4F9F4F0895DB018F939F930E941D1740
:10312000BF91AF91A29F800D911DA39F900DB29F63
:10313000900D11240895991B79E004C0991F9617EA
:1031400008F0961B881F7A95C9F78095089597FB1C
:10315000072E16F4009407D077FD09D00E94BB1803
:1031600007FC05D03EF4909581959F4F089570958A
:1031700061957F4F0895AA1BBB1B51E107C0AA1F91
:10318000BB1FA617B70710F0A61BB70B881F991F08
:103190005A95A9F780959095BC01CD010895EE0F41
:0E31A000FF1F0590F491E02D0994F894FFCFE5
:1031AE0001F401010000000000000049081D056E39
:1031BE00096D090D0A004C4F4144455200536E6192
:1031CE006B650047616D65204F7665722100536314
:0631DE006F72653A00006B
:00000001FF
